{
  "_format": "hh-sol-artifact-1",
  "contractName": "BulkSender",
  "sourceName": "contracts/BulkSender.sol",
  "abi": [
    {
      "inputs": [],
      "stateMutability": "nonpayable",
      "type": "constructor"
    },
    {
      "inputs": [
        {
          "internalType": "contract IERC20",
          "name": "_token",
          "type": "address"
        },
        {
          "internalType": "address[]",
          "name": "_from",
          "type": "address[]"
        },
        {
          "internalType": "address[]",
          "name": "_to",
          "type": "address[]"
        },
        {
          "internalType": "uint256[]",
          "name": "_values",
          "type": "uint256[]"
        }
      ],
      "name": "bulkSendToken",
      "outputs": [],
      "stateMutability": "nonpayable",
      "type": "function"
    },
    {
      "inputs": [],
      "name": "owner",
      "outputs": [
        {
          "internalType": "address",
          "name": "",
          "type": "address"
        }
      ],
      "stateMutability": "view",
      "type": "function"
    }
  ],
  "bytecode": "0x608060405234801561001057600080fd5b50600080546001600160a01b031916331790556105a4806100326000396000f3fe608060405234801561001057600080fd5b50600436106100365760003560e01c80638da5cb5b1461003b57806393e4fb3214610084575b600080fd5b60005461005b9073ffffffffffffffffffffffffffffffffffffffff1681565b60405173ffffffffffffffffffffffffffffffffffffffff909116815260200160405180910390f35b6100976100923660046103f1565b610099565b005b60005473ffffffffffffffffffffffffffffffffffffffff16331461011f576040517f08c379a000000000000000000000000000000000000000000000000000000000815260206004820152601260248201527f496e76616c6964205065726d697373696f6e000000000000000000000000000060448201526064015b60405180910390fd5b80518251148015610131575080518351145b610197576040517f08c379a000000000000000000000000000000000000000000000000000000000815260206004820152600e60248201527f496e76616c696420696e707574730000000000000000000000000000000000006044820152606401610116565b60005b82518110156102af578473ffffffffffffffffffffffffffffffffffffffff166323b872dd8583815181106101d1576101d16104e0565b60200260200101518584815181106101eb576101eb6104e0565b6020026020010151858581518110610205576102056104e0565b60209081029190910101516040517fffffffff0000000000000000000000000000000000000000000000000000000060e086901b16815273ffffffffffffffffffffffffffffffffffffffff93841660048201529290911660248301526044820152606401600060405180830381600087803b15801561028457600080fd5b505af1158015610298573d6000803e3d6000fd5b5050505080806102a79061050f565b91505061019a565b5050505050565b73ffffffffffffffffffffffffffffffffffffffff811681146102d857600080fd5b50565b7f4e487b7100000000000000000000000000000000000000000000000000000000600052604160045260246000fd5b604051601f82017fffffffffffffffffffffffffffffffffffffffffffffffffffffffffffffffe016810167ffffffffffffffff81118282101715610351576103516102db565b604052919050565b600067ffffffffffffffff821115610373576103736102db565b5060051b60200190565b600082601f83011261038e57600080fd5b813560206103a361039e83610359565b61030a565b82815260059290921b840181019181810190868411156103c257600080fd5b8286015b848110156103e65780356103d9816102b6565b83529183019183016103c6565b509695505050505050565b6000806000806080858703121561040757600080fd5b8435610412816102b6565b935060208581013567ffffffffffffffff8082111561043057600080fd5b61043c89838a0161037d565b9550604088013591508082111561045257600080fd5b61045e89838a0161037d565b9450606088013591508082111561047457600080fd5b508601601f8101881361048657600080fd5b803561049461039e82610359565b81815260059190911b8201830190838101908a8311156104b357600080fd5b928401925b828410156104d1578335825292840192908401906104b8565b979a9699509497505050505050565b7f4e487b7100000000000000000000000000000000000000000000000000000000600052603260045260246000fd5b60007fffffffffffffffffffffffffffffffffffffffffffffffffffffffffffffffff8203610567577f4e487b7100000000000000000000000000000000000000000000000000000000600052601160045260246000fd5b506001019056fea2646970667358221220d8acfcd3074329a887032a8884de158b56f35d8f2e71f61f1f0856f8ce8947ca64736f6c63430008140033",
  "linkReferences": {},
  "deployedLinkReferences": {}
}