{
  "_format": "hh-sol-artifact-1",
  "contractName": "MyNFTToken",
  "sourceName": "contracts/MyNFTToken.sol",
  "abi": [
    {
      "inputs": [
        {
          "internalType": "address",
          "name": "initialOwner",
          "type": "address"
        },
        {
          "internalType": "string",
          "name": "name",
          "type": "string"
        },
        {
          "internalType": "string",
          "name": "symbol",
          "type": "string"
        }
      ],
      "stateMutability": "nonpayable",
      "type": "constructor"
    },
    {
      "inputs": [
        {
          "internalType": "address",
          "name": "sender",
          "type": "address"
        },
        {
          "internalType": "uint256",
          "name": "tokenId",
          "type": "uint256"
        },
        {
          "internalType": "address",
          "name": "owner",
          "type": "address"
        }
      ],
      "name": "ERC721IncorrectOwner",
      "type": "error"
    },
    {
      "inputs": [
        {
          "internalType": "address",
          "name": "operator",
          "type": "address"
        },
        {
          "internalType": "uint256",
          "name": "tokenId",
          "type": "uint256"
        }
      ],
      "name": "ERC721InsufficientApproval",
      "type": "error"
    },
    {
      "inputs": [
        {
          "internalType": "address",
          "name": "approver",
          "type": "address"
        }
      ],
      "name": "ERC721InvalidApprover",
      "type": "error"
    },
    {
      "inputs": [
        {
          "internalType": "address",
          "name": "operator",
          "type": "address"
        }
      ],
      "name": "ERC721InvalidOperator",
      "type": "error"
    },
    {
      "inputs": [
        {
          "internalType": "address",
          "name": "owner",
          "type": "address"
        }
      ],
      "name": "ERC721InvalidOwner",
      "type": "error"
    },
    {
      "inputs": [
        {
          "internalType": "address",
          "name": "receiver",
          "type": "address"
        }
      ],
      "name": "ERC721InvalidReceiver",
      "type": "error"
    },
    {
      "inputs": [
        {
          "internalType": "address",
          "name": "sender",
          "type": "address"
        }
      ],
      "name": "ERC721InvalidSender",
      "type": "error"
    },
    {
      "inputs": [
        {
          "internalType": "uint256",
          "name": "tokenId",
          "type": "uint256"
        }
      ],
      "name": "ERC721NonexistentToken",
      "type": "error"
    },
    {
      "inputs": [
        {
          "internalType": "address",
          "name": "owner",
          "type": "address"
        }
      ],
      "name": "OwnableInvalidOwner",
      "type": "error"
    },
    {
      "inputs": [
        {
          "internalType": "address",
          "name": "account",
          "type": "address"
        }
      ],
      "name": "OwnableUnauthorizedAccount",
      "type": "error"
    },
    {
      "anonymous": false,
      "inputs": [
        {
          "indexed": true,
          "internalType": "address",
          "name": "owner",
          "type": "address"
        },
        {
          "indexed": true,
          "internalType": "address",
          "name": "approved",
          "type": "address"
        },
        {
          "indexed": true,
          "internalType": "uint256",
          "name": "tokenId",
          "type": "uint256"
        }
      ],
      "name": "Approval",
      "type": "event"
    },
    {
      "anonymous": false,
      "inputs": [
        {
          "indexed": true,
          "internalType": "address",
          "name": "owner",
          "type": "address"
        },
        {
          "indexed": true,
          "internalType": "address",
          "name": "operator",
          "type": "address"
        },
        {
          "indexed": false,
          "internalType": "bool",
          "name": "approved",
          "type": "bool"
        }
      ],
      "name": "ApprovalForAll",
      "type": "event"
    },
    {
      "anonymous": false,
      "inputs": [
        {
          "indexed": false,
          "internalType": "uint256",
          "name": "_fromTokenId",
          "type": "uint256"
        },
        {
          "indexed": false,
          "internalType": "uint256",
          "name": "_toTokenId",
          "type": "uint256"
        }
      ],
      "name": "BatchMetadataUpdate",
      "type": "event"
    },
    {
      "anonymous": false,
      "inputs": [
        {
          "indexed": false,
          "internalType": "uint256",
          "name": "_tokenId",
          "type": "uint256"
        }
      ],
      "name": "MetadataUpdate",
      "type": "event"
    },
    {
      "anonymous": false,
      "inputs": [
        {
          "indexed": true,
          "internalType": "address",
          "name": "previousOwner",
          "type": "address"
        },
        {
          "indexed": true,
          "internalType": "address",
          "name": "newOwner",
          "type": "address"
        }
      ],
      "name": "OwnershipTransferred",
      "type": "event"
    },
    {
      "anonymous": false,
      "inputs": [
        {
          "indexed": true,
          "internalType": "address",
          "name": "from",
          "type": "address"
        },
        {
          "indexed": true,
          "internalType": "address",
          "name": "to",
          "type": "address"
        },
        {
          "indexed": true,
          "internalType": "uint256",
          "name": "tokenId",
          "type": "uint256"
        }
      ],
      "name": "Transfer",
      "type": "event"
    },
    {
      "inputs": [
        {
          "internalType": "address",
          "name": "to",
          "type": "address"
        },
        {
          "internalType": "uint256",
          "name": "tokenId",
          "type": "uint256"
        }
      ],
      "name": "approve",
      "outputs": [],
      "stateMutability": "nonpayable",
      "type": "function"
    },
    {
      "inputs": [
        {
          "internalType": "address",
          "name": "owner",
          "type": "address"
        }
      ],
      "name": "balanceOf",
      "outputs": [
        {
          "internalType": "uint256",
          "name": "",
          "type": "uint256"
        }
      ],
      "stateMutability": "view",
      "type": "function"
    },
    {
      "inputs": [
        {
          "internalType": "uint256",
          "name": "tokenId",
          "type": "uint256"
        }
      ],
      "name": "burn",
      "outputs": [],
      "stateMutability": "nonpayable",
      "type": "function"
    },
    {
      "inputs": [
        {
          "internalType": "uint256",
          "name": "tokenId",
          "type": "uint256"
        }
      ],
      "name": "getApproved",
      "outputs": [
        {
          "internalType": "address",
          "name": "",
          "type": "address"
        }
      ],
      "stateMutability": "view",
      "type": "function"
    },
    {
      "inputs": [
        {
          "internalType": "address",
          "name": "owner",
          "type": "address"
        },
        {
          "internalType": "address",
          "name": "operator",
          "type": "address"
        }
      ],
      "name": "isApprovedForAll",
      "outputs": [
        {
          "internalType": "bool",
          "name": "",
          "type": "bool"
        }
      ],
      "stateMutability": "view",
      "type": "function"
    },
    {
      "inputs": [],
      "name": "name",
      "outputs": [
        {
          "internalType": "string",
          "name": "",
          "type": "string"
        }
      ],
      "stateMutability": "view",
      "type": "function"
    },
    {
      "inputs": [],
      "name": "owner",
      "outputs": [
        {
          "internalType": "address",
          "name": "",
          "type": "address"
        }
      ],
      "stateMutability": "view",
      "type": "function"
    },
    {
      "inputs": [
        {
          "internalType": "uint256",
          "name": "tokenId",
          "type": "uint256"
        }
      ],
      "name": "ownerOf",
      "outputs": [
        {
          "internalType": "address",
          "name": "",
          "type": "address"
        }
      ],
      "stateMutability": "view",
      "type": "function"
    },
    {
      "inputs": [],
      "name": "renounceOwnership",
      "outputs": [],
      "stateMutability": "nonpayable",
      "type": "function"
    },
    {
      "inputs": [
        {
          "internalType": "address",
          "name": "to",
          "type": "address"
        },
        {
          "internalType": "uint256",
          "name": "tokenId",
          "type": "uint256"
        },
        {
          "internalType": "string",
          "name": "uri",
          "type": "string"
        }
      ],
      "name": "safeMint",
      "outputs": [],
      "stateMutability": "nonpayable",
      "type": "function"
    },
    {
      "inputs": [
        {
          "internalType": "address",
          "name": "from",
          "type": "address"
        },
        {
          "internalType": "address",
          "name": "to",
          "type": "address"
        },
        {
          "internalType": "uint256",
          "name": "tokenId",
          "type": "uint256"
        }
      ],
      "name": "safeTransferFrom",
      "outputs": [],
      "stateMutability": "nonpayable",
      "type": "function"
    },
    {
      "inputs": [
        {
          "internalType": "address",
          "name": "from",
          "type": "address"
        },
        {
          "internalType": "address",
          "name": "to",
          "type": "address"
        },
        {
          "internalType": "uint256",
          "name": "tokenId",
          "type": "uint256"
        },
        {
          "internalType": "bytes",
          "name": "data",
          "type": "bytes"
        }
      ],
      "name": "safeTransferFrom",
      "outputs": [],
      "stateMutability": "nonpayable",
      "type": "function"
    },
    {
      "inputs": [
        {
          "internalType": "address",
          "name": "operator",
          "type": "address"
        },
        {
          "internalType": "bool",
          "name": "approved",
          "type": "bool"
        }
      ],
      "name": "setApprovalForAll",
      "outputs": [],
      "stateMutability": "nonpayable",
      "type": "function"
    },
    {
      "inputs": [
        {
          "internalType": "bytes4",
          "name": "interfaceId",
          "type": "bytes4"
        }
      ],
      "name": "supportsInterface",
      "outputs": [
        {
          "internalType": "bool",
          "name": "",
          "type": "bool"
        }
      ],
      "stateMutability": "view",
      "type": "function"
    },
    {
      "inputs": [],
      "name": "symbol",
      "outputs": [
        {
          "internalType": "string",
          "name": "",
          "type": "string"
        }
      ],
      "stateMutability": "view",
      "type": "function"
    },
    {
      "inputs": [
        {
          "internalType": "uint256",
          "name": "tokenId",
          "type": "uint256"
        }
      ],
      "name": "tokenURI",
      "outputs": [
        {
          "internalType": "string",
          "name": "",
          "type": "string"
        }
      ],
      "stateMutability": "view",
      "type": "function"
    },
    {
      "inputs": [
        {
          "internalType": "address",
          "name": "from",
          "type": "address"
        },
        {
          "internalType": "address",
          "name": "to",
          "type": "address"
        },
        {
          "internalType": "uint256",
          "name": "tokenId",
          "type": "uint256"
        }
      ],
      "name": "transferFrom",
      "outputs": [],
      "stateMutability": "nonpayable",
      "type": "function"
    },
    {
      "inputs": [
        {
          "internalType": "address",
          "name": "newOwner",
          "type": "address"
        }
      ],
      "name": "transferOwnership",
      "outputs": [],
      "stateMutability": "nonpayable",
      "type": "function"
    }
  ],
  "bytecode": "0x60806040523480156200001157600080fd5b5060405162001eb438038062001eb48339810160408190526200003491620001b2565b8282826000620000458382620002cb565b506001620000548282620002cb565b5050506001600160a01b0381166200008657604051631e4fbdf760e01b81526000600482015260240160405180910390fd5b62000091816200009b565b5050505062000397565b600780546001600160a01b038381166001600160a01b0319831681179093556040519116919082907f8be0079c531659141344cd1fd0a4f28419497f9722a3daafe3b4186f6b6457e090600090a35050565b634e487b7160e01b600052604160045260246000fd5b600082601f8301126200011557600080fd5b81516001600160401b0380821115620001325762000132620000ed565b604051601f8301601f19908116603f011681019082821181831017156200015d576200015d620000ed565b816040528381526020925086838588010111156200017a57600080fd5b600091505b838210156200019e57858201830151818301840152908201906200017f565b600093810190920192909252949350505050565b600080600060608486031215620001c857600080fd5b83516001600160a01b0381168114620001e057600080fd5b60208501519093506001600160401b0380821115620001fe57600080fd5b6200020c8783880162000103565b935060408601519150808211156200022357600080fd5b50620002328682870162000103565b9150509250925092565b600181811c908216806200025157607f821691505b6020821081036200027257634e487b7160e01b600052602260045260246000fd5b50919050565b601f821115620002c657600081815260208120601f850160051c81016020861015620002a15750805b601f850160051c820191505b81811015620002c257828155600101620002ad565b5050505b505050565b81516001600160401b03811115620002e757620002e7620000ed565b620002ff81620002f884546200023c565b8462000278565b602080601f8311600181146200033757600084156200031e5750858301515b600019600386901b1c1916600185901b178555620002c2565b600085815260208120601f198616915b82811015620003685788860151825594840194600190910190840162000347565b5085821015620003875787850151600019600388901b60f8161c191681555b5050505050600190811b01905550565b611b0d80620003a76000396000f3fe608060405234801561001057600080fd5b50600436106101365760003560e01c8063715018a6116100b2578063b88d4fde11610081578063cd279c7c11610066578063cd279c7c14610299578063e985e9c5146102ac578063f2fde38b146102f557600080fd5b8063b88d4fde14610273578063c87b56dd1461028657600080fd5b8063715018a6146102325780638da5cb5b1461023a57806395d89b4114610258578063a22cb4651461026057600080fd5b806323b872dd1161010957806342966c68116100ee57806342966c68146101eb5780636352211e146101fe57806370a082311461021157600080fd5b806323b872dd146101c557806342842e0e146101d857600080fd5b806301ffc9a71461013b57806306fdde0314610163578063081812fc14610178578063095ea7b3146101b0575b600080fd5b61014e61014936600461150d565b610308565b60405190151581526020015b60405180910390f35b61016b610319565b60405161015a9190611598565b61018b6101863660046115ab565b6103ab565b60405173ffffffffffffffffffffffffffffffffffffffff909116815260200161015a565b6101c36101be3660046115ed565b6103e1565b005b6101c36101d3366004611617565b6103f0565b6101c36101e6366004611617565b6104e6565b6101c36101f93660046115ab565b610506565b61018b61020c3660046115ab565b610512565b61022461021f366004611653565b61051d565b60405190815260200161015a565b6101c3610598565b60075473ffffffffffffffffffffffffffffffffffffffff1661018b565b61016b6105ac565b6101c361026e36600461166e565b6105bb565b6101c361028136600461176d565b6105c6565b61016b6102943660046115ab565b6105dd565b6101c36102a73660046117e9565b6105e8565b61014e6102ba366004611854565b73ffffffffffffffffffffffffffffffffffffffff918216600090815260056020908152604080832093909416825291909152205460ff1690565b6101c3610303366004611653565b610604565b600061031382610668565b92915050565b60606000805461032890611887565b80601f016020809104026020016040519081016040528092919081815260200182805461035490611887565b80156103a15780601f10610376576101008083540402835291602001916103a1565b820191906000526020600020905b81548152906001019060200180831161038457829003601f168201915b5050505050905090565b60006103b6826106be565b5060008281526004602052604090205473ffffffffffffffffffffffffffffffffffffffff16610313565b6103ec82823361071d565b5050565b73ffffffffffffffffffffffffffffffffffffffff8216610445576040517f64a0ae92000000000000000000000000000000000000000000000000000000008152600060048201526024015b60405180910390fd5b600061045283833361072a565b90508373ffffffffffffffffffffffffffffffffffffffff168173ffffffffffffffffffffffffffffffffffffffff16146104e0576040517f64283d7b00000000000000000000000000000000000000000000000000000000815273ffffffffffffffffffffffffffffffffffffffff8086166004830152602482018490528216604482015260640161043c565b50505050565b610501838383604051806020016040528060008152506105c6565b505050565b6103ec6000823361072a565b6000610313826106be565b600073ffffffffffffffffffffffffffffffffffffffff821661056f576040517f89c62b640000000000000000000000000000000000000000000000000000000081526000600482015260240161043c565b5073ffffffffffffffffffffffffffffffffffffffff1660009081526003602052604090205490565b6105a06108a7565b6105aa60006108fa565b565b60606001805461032890611887565b6103ec338383610971565b6105d18484846103f0565b6104e084848484610a6e565b606061031382610c65565b6105f06108a7565b6105fa8383610d76565b6105018282610d90565b61060c6108a7565b73ffffffffffffffffffffffffffffffffffffffff811661065c576040517f1e4fbdf70000000000000000000000000000000000000000000000000000000081526000600482015260240161043c565b610665816108fa565b50565b60007fffffffff0000000000000000000000000000000000000000000000000000000082167f49064906000000000000000000000000000000000000000000000000000000001480610313575061031382610de0565b60008181526002602052604081205473ffffffffffffffffffffffffffffffffffffffff1680610313576040517f7e2732890000000000000000000000000000000000000000000000000000000081526004810184905260240161043c565b6105018383836001610ec3565b60008281526002602052604081205473ffffffffffffffffffffffffffffffffffffffff908116908316156107645761076481848661108e565b73ffffffffffffffffffffffffffffffffffffffff8116156107da5761078e600085600080610ec3565b73ffffffffffffffffffffffffffffffffffffffff8116600090815260036020526040902080547fffffffffffffffffffffffffffffffffffffffffffffffffffffffffffffffff0190555b73ffffffffffffffffffffffffffffffffffffffff8516156108235773ffffffffffffffffffffffffffffffffffffffff85166000908152600360205260409020805460010190555b60008481526002602052604080822080547fffffffffffffffffffffffff00000000000000000000000000000000000000001673ffffffffffffffffffffffffffffffffffffffff89811691821790925591518793918516917fddf252ad1be2c89b69c2b068fc378daa952ba7f163c4a11628f55a4df523b3ef91a4949350505050565b60075473ffffffffffffffffffffffffffffffffffffffff1633146105aa576040517f118cdaa700000000000000000000000000000000000000000000000000000000815233600482015260240161043c565b6007805473ffffffffffffffffffffffffffffffffffffffff8381167fffffffffffffffffffffffff0000000000000000000000000000000000000000831681179093556040519116919082907f8be0079c531659141344cd1fd0a4f28419497f9722a3daafe3b4186f6b6457e090600090a35050565b73ffffffffffffffffffffffffffffffffffffffff82166109d6576040517f5b08ba1800000000000000000000000000000000000000000000000000000000815273ffffffffffffffffffffffffffffffffffffffff8316600482015260240161043c565b73ffffffffffffffffffffffffffffffffffffffff83811660008181526005602090815260408083209487168084529482529182902080547fffffffffffffffffffffffffffffffffffffffffffffffffffffffffffffff001686151590811790915591519182527f17307eab39ab6107e8899845ad3d59bd9653f200f220920489ca2b5937696c31910160405180910390a3505050565b73ffffffffffffffffffffffffffffffffffffffff83163b156104e0576040517f150b7a0200000000000000000000000000000000000000000000000000000000815273ffffffffffffffffffffffffffffffffffffffff84169063150b7a0290610ae39033908890879087906004016118da565b6020604051808303816000875af1925050508015610b3c575060408051601f3d9081017fffffffffffffffffffffffffffffffffffffffffffffffffffffffffffffffe0168201909252610b3991810190611923565b60015b610bcb573d808015610b6a576040519150601f19603f3d011682016040523d82523d6000602084013e610b6f565b606091505b508051600003610bc3576040517f64a0ae9200000000000000000000000000000000000000000000000000000000815273ffffffffffffffffffffffffffffffffffffffff8516600482015260240161043c565b805181602001fd5b7fffffffff0000000000000000000000000000000000000000000000000000000081167f150b7a020000000000000000000000000000000000000000000000000000000014610c5e576040517f64a0ae9200000000000000000000000000000000000000000000000000000000815273ffffffffffffffffffffffffffffffffffffffff8516600482015260240161043c565b5050505050565b6060610c70826106be565b5060008281526006602052604081208054610c8a90611887565b80601f0160208091040260200160405190810160405280929190818152602001828054610cb690611887565b8015610d035780601f10610cd857610100808354040283529160200191610d03565b820191906000526020600020905b815481529060010190602001808311610ce657829003601f168201915b505050505090506000610d2160408051602081019091526000815290565b90508051600003610d33575092915050565b815115610d65578082604051602001610d4d929190611940565b60405160208183030381529060405292505050919050565b610d6e8461113e565b949350505050565b6103ec8282604051806020016040528060008152506111b3565b6000828152600660205260409020610da882826119bd565b506040518281527ff8e1a15aba9398e019f0b49df1a4fde98ee17ae345cb5f6b5e2c27f5033e8ce79060200160405180910390a15050565b60007fffffffff0000000000000000000000000000000000000000000000000000000082167f80ac58cd000000000000000000000000000000000000000000000000000000001480610e7357507fffffffff0000000000000000000000000000000000000000000000000000000082167f5b5e139f00000000000000000000000000000000000000000000000000000000145b8061031357507f01ffc9a7000000000000000000000000000000000000000000000000000000007fffffffff00000000000000000000000000000000000000000000000000000000831614610313565b8080610ee4575073ffffffffffffffffffffffffffffffffffffffff821615155b15611039576000610ef4846106be565b905073ffffffffffffffffffffffffffffffffffffffff831615801590610f4757508273ffffffffffffffffffffffffffffffffffffffff168173ffffffffffffffffffffffffffffffffffffffff1614155b8015610f86575073ffffffffffffffffffffffffffffffffffffffff80821660009081526005602090815260408083209387168352929052205460ff16155b15610fd5576040517fa9fbf51f00000000000000000000000000000000000000000000000000000000815273ffffffffffffffffffffffffffffffffffffffff8416600482015260240161043c565b811561103757838573ffffffffffffffffffffffffffffffffffffffff168273ffffffffffffffffffffffffffffffffffffffff167f8c5be1e5ebec7d5bd14f71427d1e84f3dd0314c0f7b2291e5b200ac8c7c3b92560405160405180910390a45b505b5050600090815260046020526040902080547fffffffffffffffffffffffff00000000000000000000000000000000000000001673ffffffffffffffffffffffffffffffffffffffff92909216919091179055565b6110998383836111ca565b6105015773ffffffffffffffffffffffffffffffffffffffff83166110ed576040517f7e2732890000000000000000000000000000000000000000000000000000000081526004810182905260240161043c565b6040517f177e802f00000000000000000000000000000000000000000000000000000000815273ffffffffffffffffffffffffffffffffffffffff831660048201526024810182905260440161043c565b6060611149826106be565b50600061116160408051602081019091526000815290565b9050600081511161118157604051806020016040528060008152506111ac565b8061118b8461128e565b60405160200161119c929190611940565b6040516020818303038152906040525b9392505050565b6111bd838361134c565b6105016000848484610a6e565b600073ffffffffffffffffffffffffffffffffffffffff831615801590610d6e57508273ffffffffffffffffffffffffffffffffffffffff168473ffffffffffffffffffffffffffffffffffffffff161480611258575073ffffffffffffffffffffffffffffffffffffffff80851660009081526005602090815260408083209387168352929052205460ff165b80610d6e57505060009081526004602052604090205473ffffffffffffffffffffffffffffffffffffffff908116911614919050565b6060600061129b836113fd565b600101905060008167ffffffffffffffff8111156112bb576112bb6116aa565b6040519080825280601f01601f1916602001820160405280156112e5576020820181803683370190505b5090508181016020015b7fffffffffffffffffffffffffffffffffffffffffffffffffffffffffffffffff017f3031323334353637383961626364656600000000000000000000000000000000600a86061a8153600a85049450846112ef57509392505050565b73ffffffffffffffffffffffffffffffffffffffff821661139c576040517f64a0ae920000000000000000000000000000000000000000000000000000000081526000600482015260240161043c565b60006113aa8383600061072a565b905073ffffffffffffffffffffffffffffffffffffffff811615610501576040517f73c6ac6e0000000000000000000000000000000000000000000000000000000081526000600482015260240161043c565b6000807a184f03e93ff9f4daa797ed6e38ed64bf6a1f0100000000000000008310611446577a184f03e93ff9f4daa797ed6e38ed64bf6a1f010000000000000000830492506040015b6d04ee2d6d415b85acef81000000008310611472576d04ee2d6d415b85acef8100000000830492506020015b662386f26fc10000831061149057662386f26fc10000830492506010015b6305f5e10083106114a8576305f5e100830492506008015b61271083106114bc57612710830492506004015b606483106114ce576064830492506002015b600a83106103135760010192915050565b7fffffffff000000000000000000000000000000000000000000000000000000008116811461066557600080fd5b60006020828403121561151f57600080fd5b81356111ac816114df565b60005b8381101561154557818101518382015260200161152d565b50506000910152565b6000815180845261156681602086016020860161152a565b601f017fffffffffffffffffffffffffffffffffffffffffffffffffffffffffffffffe0169290920160200192915050565b6020815260006111ac602083018461154e565b6000602082840312156115bd57600080fd5b5035919050565b803573ffffffffffffffffffffffffffffffffffffffff811681146115e857600080fd5b919050565b6000806040838503121561160057600080fd5b611609836115c4565b946020939093013593505050565b60008060006060848603121561162c57600080fd5b611635846115c4565b9250611643602085016115c4565b9150604084013590509250925092565b60006020828403121561166557600080fd5b6111ac826115c4565b6000806040838503121561168157600080fd5b61168a836115c4565b91506020830135801515811461169f57600080fd5b809150509250929050565b7f4e487b7100000000000000000000000000000000000000000000000000000000600052604160045260246000fd5b600067ffffffffffffffff808411156116f4576116f46116aa565b604051601f85017fffffffffffffffffffffffffffffffffffffffffffffffffffffffffffffffe0908116603f0116810190828211818310171561173a5761173a6116aa565b8160405280935085815286868601111561175357600080fd5b858560208301376000602087830101525050509392505050565b6000806000806080858703121561178357600080fd5b61178c856115c4565b935061179a602086016115c4565b925060408501359150606085013567ffffffffffffffff8111156117bd57600080fd5b8501601f810187136117ce57600080fd5b6117dd878235602084016116d9565b91505092959194509250565b6000806000606084860312156117fe57600080fd5b611807846115c4565b925060208401359150604084013567ffffffffffffffff81111561182a57600080fd5b8401601f8101861361183b57600080fd5b61184a868235602084016116d9565b9150509250925092565b6000806040838503121561186757600080fd5b611870836115c4565b915061187e602084016115c4565b90509250929050565b600181811c9082168061189b57607f821691505b6020821081036118d4577f4e487b7100000000000000000000000000000000000000000000000000000000600052602260045260246000fd5b50919050565b600073ffffffffffffffffffffffffffffffffffffffff808716835280861660208401525083604083015260806060830152611919608083018461154e565b9695505050505050565b60006020828403121561193557600080fd5b81516111ac816114df565b6000835161195281846020880161152a565b83519083019061196681836020880161152a565b01949350505050565b601f82111561050157600081815260208120601f850160051c810160208610156119965750805b601f850160051c820191505b818110156119b5578281556001016119a2565b505050505050565b815167ffffffffffffffff8111156119d7576119d76116aa565b6119eb816119e58454611887565b8461196f565b602080601f831160018114611a3e5760008415611a085750858301515b7fffffffffffffffffffffffffffffffffffffffffffffffffffffffffffffffff600386901b1c1916600185901b1785556119b5565b6000858152602081207fffffffffffffffffffffffffffffffffffffffffffffffffffffffffffffffe08616915b82811015611a8b57888601518255948401946001909101908401611a6c565b5085821015611ac757878501517fffffffffffffffffffffffffffffffffffffffffffffffffffffffffffffffff600388901b60f8161c191681555b5050505050600190811b0190555056fea2646970667358221220dba0fc15aa562502171eaa32debfd6791b109d9ba4b4368b91b563b1f501e9b664736f6c63430008140033",
  "linkReferences": {},
  "deployedLinkReferences": {}
}